:020000040800F2
:1000000038020020851A00080101000803010008D9
:10001000070100080B0100080F01000800000000A4
:1000200000000000000000000000000013010008B4
:100030001501000800000000170100081901000860
:100040009B1A00089B1A00089B1A00089B1A0008BC
:100050009B1A00089B1A00089B1A00089B1A0008AC
:100060009B1A00089B1A00089B1A00089B1A00089C
:100070009B1A00089B1A00089B1A00089B1A00088C
:100080009B1A00089B1A00089B1A00089B1A00087C
:100090009B1A00089B1A00089B1A00089B1A00086C
:1000A0009B1A00089B1A00089B1A00089B1A00085C
:1000B0009B1A00089B1A00089B1A00089B1A00084C
:1000C0009B1A00089B1A00089B1A00089B1A00083C
:1000D0009B1A00089B1A00089B1A00089B1A00082C
:1000E0009B1A00089B1A00089B1A0008DFF80CD026
:1000F00002F0A8FF0048004767050008380200200A
:10010000704700BFFEE700BFFEE700BFFEE700BF8D
:10011000FEE7704770477047704700000CB500203D
:10012000019000906C48006840F480306A49086093
:1001300000BF6948006800F4003000900198401C3E
:100140000190009818B90198B0F5A06FF1D16248FC
:10015000006800F4003010B10120009001E00020A0
:1001600000900098012843D15C48006840F01000DE
:100170005A4908600846006820F0030008600846F5
:10018000006840F0020008605348406852494860E7
:100190000846406848600846406840F4806048600F
:1001A0000846406820F47C1048600846406840F4E7
:1001B000E81048600846006840F08070086000BFA2
:1001C0004548006800F000700028F9D042484068B7
:1001D00020F00300404948600846406840F00200B3
:1001E000486000BF3C48406800F00C000828F9D186
:1001F0000CBD10B5FFF792FF10BD10B53648006872
:1002000040F001003449086008464068344908401D
:100210003149486008460068324908402E49086064
:100220000846006820F4802008600846406820F4F2
:10023000FE0048604FF41F008860FFF7DAFF4FF0C0
:1002400000602949086010BD10B50021002000227F
:10025000214B5B6803F00C0121B1042906D0082969
:1002600028D107E0214B224C236027E01F4B204C74
:10027000236023E0184B5B6803F47010164B5B6837
:1002800003F48032022303EB904022B9194B43431D
:10029000174C23600DE0104B5B6803F4003323B16F
:1002A000144B4343124C236003E0104B4343104C68
:1002B000236003E00D4B0E4C236000BF00BF064BD4
:1002C0005B68C3F303130C4CE15C094B1B68CB4028
:1002D000074C236010BD00000010024000200240C7
:1002E0000000FFF8FFFFF6FE08ED00E000127A00C4
:1002F0000000002000093D00040000202DE9F84323
:1003000080460C4615461E4600273088009001F0B6
:100310001BFA9DF800104906080E01F091FA01F051
:100320006FFA20B101F025FA0120BDE8F8834046BC
:1003300001F086FA01F064FA01F006FA9DF8001067
:10034000012202EB4101C8B201F07AFA01F058FA39
:10035000002705E0012001F097FA04F8010B7F1C4B
:10036000681EB842F6D8002001F08EFA207001F025
:1003700000FA0020D9E72DE9F84380460C461546DF
:100380001E46002730880090012098490860002010
:100390009749C1F8B001404600F055FA00BF05E0AA
:1003A000FF2000F050FA04F8010B7F1CAF42F7D396
:1003B00001208E4908600020BDE8F88370B504462E
:1003C0000D46204601F0ADFA70BD2DE9F843804698
:1003D0000C4615461E4600273088009001F0B4F9FF
:1003E0009DF800104906080E01F02AFA01F008FAFB
:1003F00020B101F0BEF90120BDE8F883404601F0CC
:100400001FFA01F0FDF9002706E014F8010B01F0D6
:1004100017FA01F0F5F97F1CAF42F6D301F0A9F904
:100420000020E9E72DE9F04107460C4615469846BD
:10043000002601206D49086000206D49C1F8B00117
:10044000384600F000FA00BF05E014F8010B00F098
:10045000FAF9701CC6B2AE42F7D3012063490860B6
:100460000020BDE8F0812DE9F04F87B08246DAE93F
:100470000221104602F0A6FC0690DAE9006332463B
:100480005C485D4902F03DFB044602F09BFC83465C
:10049000DAE90421104602F095FC0590059802F077
:1004A0004EFC04460D46584602F049FC06460F46EF
:1004B000069802F044FC804642460B464FA0CDE928
:1004C0000067CDE9024502F0DDFD07B0BDE8F08F21
:1004D00070B586B00446012142200155052084F8FC
:1004E00040000221412001550421432001550F26DF
:1004F0002146304600F0EEFC05463DB12A4648A1B3
:10050000524802F0B1FD284606B070BD50A002F07E
:10051000B9FD24E02146012000F03FFD05462DB144
:100520002A4654A1494802F09FFD19E049F640408F
:1005300062696168904722466946072001F089F8A0
:1005400005462DB12A4655A1404802F08DFD07E031
:100550006846FFF788FF5B48626961689047D9E7A2
:1005600000BF2846D0E770B594B005460E4600247B
:10057000FFF743FE002211464FF4E13001F031FA5B
:1005800051A002F07FFD55A002F07CFD01F0B0F912
:1005900056A002F077FD01F0C3F877208DF8040033
:1005A00001208DF81000AFF2AB200590AFF2E510FE
:1005B0000690AFF2F710079001A8039002A800F090
:1005C0004AFB044624B122464BA1204802F04CFDD0
:1005D00002A8FFF77DFF044624B1224652A11B4822
:1005E00002F042FD002014B070BD0000B081214235
:1005F000008021427B14AE47E17A843F25302E32C1
:100600006C662064656720432C2025302E326C6692
:10061000206850612C2025302E326C6625250A007A
:100620004661696C656420746F207365742073651E
:100630006E736F722073657474696E6773202863BC
:100640006F646520252B64292E00000030000020F7
:1006500054656D70657261747572652C2050726599
:1006600073737572652C2048756D69646974790AB5
:10067000000000004661696C656420746F2073653A
:10068000742073656E736F72206D6F6465202863CC
:100690006F646520252B64292E0000004661696C7B
:1006A000656420746F206765742073656E736F7264
:1006B00020646174612028636F646520252B6429A0
:1006C0002E000000801A06002D2D20626D65323844
:1006D000302064656D6F202D2D0D0A0053544D336D
:1006E0003246313033433854360D0A007573652075
:1006F0004949430D0A0000004661696C6564207435
:100700006F20696E697469616C697A6520746865C7
:10071000206465766963652028636F646520252BF6
:1007200064292E0A000000004661696C656420742B
:100730006F2073747265616D2073656E736F7220C4
:10074000646174612028636F646520252B64292E01
:100750000A00000070B50546002405E0601CC4B224
:10076000C82C01DD002070BD0221874802F0D9F8B5
:100770000028F3D02946844802F080F8002405E0E0
:10078000601CC4B2C82C01DD0020ECE701217E48CA
:1007900002F0C7F80028F3D07B4802F071F8C0B22D
:1007A000E1E700B587B00121042001F003FD01213C
:1007B000080301F0FFFCE020ADF8180018208DF8C8
:1007C0001B0003208DF81A0006A9704801F036FAC4
:1007D000E0216E4801F0DFFA23208DF800000120AF
:1007E0008DF8010002208DF8020001208DF8030031
:1007F000684601F05AF90020ADF804004FF4827009
:10080000ADF806000020ADF80800ADF80A00ADF81C
:100810000C004FF40070ADF80E003820ADF8100059
:100820000020ADF812000720ADF8140001A95648C9
:1008300001F04EFF0121544801F0EFFFFF20FFF7C8
:1008400089FF07B000BD70B50546002405E0601CB7
:10085000C4B2C82C01DD002070BD02214C4802F05A
:1008600060F80028F3D02946494802F007F8002430
:1008700005E0601CC4B2C82C01DD0020ECE70121BA
:10088000434802F04EF80028F3D0414801F0F8FF49
:10089000C0B2E1E700B587B00121082001F08AFC71
:1008A0000121880301F093FC4FF46040ADF818007B
:1008B00018208DF81B0003208DF81A0006A9354872
:1008C00001F0BCF94FF46041324801F064FA242091
:1008D0008DF8000001208DF8010002208DF8020043
:1008E00001208DF80300684601F0DFF80020ADF824
:1008F00004004FF48270ADF806000020ADF8080047
:100900000220ADF80A000120ADF80C004002ADF85D
:100910000E003020ADF810000020ADF812000720C6
:10092000ADF8140001A91A4801F0D2FE01211848BF
:1009300001F073FFFF20FFF786FF07B000BD10B581
:100940000446114800884FF6C77108400E490880D8
:10095000084600882043088001210B4801F05DFF14
:1009600010BD10B504460A4800884FF6C77108400C
:100970000749088008460088204308800121044870
:1009800001F04BFF10BD00000030014000080140A5
:1009900000380040000C0140F0B50A4602F1180191
:1009A000077890F801C047EA0C273FB24F83877859
:1009B0000F77C7787FB23C01077907F00F0344EA4D
:1009C0000307CF8347797FB23E0107793D1146EA9D
:1009D00005070F8487797FB281F82270F0BD014648
:1009E00029B1CA681AB10A690AB14A6912B94FF045
:1009F000FF3000E0002070472DE9F04105460E462B
:100A000090461C462046FFF7EAFF0746A7B99EB16D
:100A1000207A012801D045F080054246314628461B
:100A2000D4F80CC06368E04784F8450094F84500AA
:100A300020B16FF0030701E04FF0FF373846BDE803
:100A4000F08110B50A4602F118010378447843EAB0
:100A500004230B808378C47843EA04231BB24B80C1
:100A60000379447943EA04231BB28B808379C479E8
:100A700043EA0423CB80037A447A43EA04231BB27B
:100A80000B81837AC47A43EA04231BB24B81037B34
:100A9000447B43EA04231BB28B81837BC47B43EA00
:100AA00004231BB2CB81037C447C43EA04231BB2A6
:100AB0000B82837CC47C43EA04231BB24B82037DFC
:100AC000447D43EA04231BB28B82837DC47D43EAC9
:100AD00004231BB2CB82437E0B7610BD70B588B069
:100AE000044688261C2101A801F059FF23461A223A
:100AF00001A93046FFF780FF054685B9214601A8C8
:100B0000FFF79FFFE1262346072201A93046FFF7A2
:100B100073FF05461DB9214601A8FFF73DFF284692
:100B200008B070BD70B50446012009E0255C0126BF
:100B3000C6EB40068D55155C01F81050451CE8B217
:100B40009842F3DB70BD2DE9F04786B00646884633
:100B500014461D460A2C00DD0A242846FFF73FFFF5
:100B60008146B9F1000F38D196B3B8F1000F34D0F7
:100B70007CB398F800008DF80400287A012809D089
:100B8000002705E0F05D00F07F00F055781CC7B24B
:100B9000A742F7DB012C0BDD2346424601A9304674
:100BA000FFF7C0FF0120C0EB44001FFA80FA00E00D
:100BB000A2463078524601A9D5F810C06B68E047CC
:100BC00085F8450095F8450048B16FF0030906E047
:100BD00003E0FFE76FF0020901E04FF0FF394846FC
:100BE00006B0BDE8F087FEB50446E0200290002084
:100BF00001900526B62000902046FFF7F0FE05463E
:100C00003DBB23460122694602A8FFF79CFF05462B
:100C1000FDB900BF4FF4FA606269616890472346EE
:100C2000012201A9F320FFF7E7FE054655B9301E62
:100C3000A6F10101CEB205D09DF8040000F001003C
:100C40000028E7D19DF8040000F0010008B16FF022
:100C500005052846FEBDF8B504460526002000908F
:100C60002046FFF7BCFE0546002D29D1FEA002F06C
:100C700009FA1FE0234601226946D020FFF7BCFE97
:100C8000054685B99DF8000060280CD19DF800004C
:100C900020702046FFF7A7FF05461DB92046FFF745
:100CA0001DFF054608E04FF47A706269616890475D
:100CB000701EC6B2002EDDD100BF0EB96FF0010567
:100CC0002846F8BD0B79027863F34712027070472B
:100CD000CB78027863F38402027070472DE9FC41FF
:100CE00004460F461546F52001902B460122694621
:100CF0009DF80400FFF780FE0646A6B904F0080040
:100D000018B139466846FFF7E3FF04F0100018B148
:100D100039466846FFF7D6FF2B460122694601A8EF
:100D2000FFF711FF06463046BDE8FC810246002071
:100D300002EA01030BB1012000E0002070474B786C
:100D4000027863F34712027070470B78027863F3FE
:100D50008402027070472DE9FC4104460F46154697
:100D6000F42001902B46012269469DF80400FFF70C
:100D700043FE0646A6B904F0010018B1394668469C
:100D8000FFF7E3FF04F0020018B139466846FFF7A9
:100D9000D6FF2B460122694601A8FFF7D4FE06467E
:100DA0003046BDE8FC81FEB505460E46F2200090B7
:100DB000A87800F0070002903346012202A9684695
:100DC000FFF7C1FE04468CB9F4200090334601229F
:100DD00001A99DF80000FFF70FFE044634B9334621
:100DE000012201A96846FFF7AEFE04462046FEBD7B
:100DF0002DE9F04104460D461646012704F0040093
:100E000020B131462846FFF7CEFF074604F0030025
:100E100028B1324629462046FFF79DFF074638464F
:100E2000BDE8F08170B504460D462A4621461F20D4
:100E3000FFF7DEFF06462EB92A4621461F20FFF7A0
:100E40004DFF0646304670BD027802F007028A70F8
:100E50008278C2F382020A70827852094A70C2789C
:100E6000C2F38202CA70C27852090A7170473EB555
:100E700004462346042202A9F220FFF7BDFD0546E1
:100E80006DB9694602A8FFF7DFFF2046FFF7ABFE0A
:100E9000054625B921466846FFF7C4FF05462846A2
:100EA0003EBD70B504460D462846FFF798FD064640
:100EB00066B95CB12B4601222146F420FFF79CFD68
:100EC0000646207800F00300207001E04FF0FF3666
:100ED000304670BDF8B506460C462046FFF77FFD4C
:100EE000054635BB21466846FFF7DBFF054635B9A9
:100EF0009DF8000018B12046FFF7B9FF0546C5B9B7
:100F000031460720FFF712FF30B1224604F14001BD
:100F10003046FFF76DFF05465DB931461820FFF7F3
:100F200005FF30B1224604F140013046FFF7D6FEFE
:100F300005462846F8BD38B505462846FFF74FFD5B
:100F4000044664B92B4604226946F220FFF754FD9B
:100F5000044624B905F140016846FFF775FF2046B5
:100F600038BD7CB506460C46F4200190234601228C
:100F700069469DF80400FFF73FFD05465DB99DF801
:100F8000000066F30100009023460122694601A893
:100F9000FFF7D9FD054628467CBDF8B506460D4647
:100FA0002846FFF71CFD044694B929466846FFF71A
:100FB00078FF044634B99DF8000018B12846FFF7C1
:100FC00056FF044624B929463046FFF7CAFF0446B7
:100FD0002046F8BD2DE9F04F95B083468A460021A2
:100FE0000E460F462448CDE91210DAF8240001F02D
:100FF00069FE0022214BCDE9060101F07CFDCDE91F
:101000001001BAF9200001F05DFE00221C4BCDE971
:10101000000101F0E8FDCDE90201DDE9102301F056
:1010200070FDCDE90601BAF91E0001F04BFE002269
:10103000144BCDE9020101F064FDCDE90401DDE9C5
:10104000062301F0B7FCCDE90E01DBF8080001F042
:101050004AFECDE90601DDE90E2301F04CFDCDE9A4
:101060000C01BAF91A000FE07074725F636865636F
:101070006B206F6B0D0A00000000594000C0F24069
:101080000000D0400000504001F01CFE0022FE4B4A
:10109000CDE9060101F0A7FDCDE90A019AF81C008F
:1010A00001F021FE0022F94BCDE9020101F09BFD88
:1010B000CDE90401DDE9102301F023FD0022F44B0A
:1010C000CDE9060101F076FCCDE908019AF922008C
:1010D00001F0F8FD0022ED4BCDE9000101F083FDA8
:1010E000CDE90201DDE9102301F00BFDCDE904019A
:1010F000DDE9082301F005FD0022E54BCDE90601FD
:1011000001F058FC8046894642464B46DDE908011D
:1011100001F0F7FCCDE90601DDE90A23DDE90C0168
:1011200001F0EFFCCDE90401DDE9062301F0E9FC63
:10113000804689469AF8180001F0D5FD42464B4694
:10114000CDE9000101F0DDFC0022D24BCDE9020126
:1011500001F049FD0022CE4BCDE9040101F0CEFCA7
:1011600042464B46CDE9060101F0CBFC04460D4654
:1011700020462946DDE9122301F00CFE02D2DDE90A
:10118000124508E032463B462046294601F0EAFD7A
:1011900001D234463D462046294615B0BDE8F08FC1
:1011A0002DE9F04F8FB083468A464FF00008DFF8F4
:1011B000E8920021B948CDE90810DAF8240001F0DE
:1011C00081FD00224FF08043CDE9040101F00BFDC9
:1011D0000022B34BCDE9060101F08DFC06460F4617
:1011E000BAF9100001F06EFD32463B46CDE904012C
:1011F0003046394601F085FCCDE90201DDE90423E2
:1012000001F07FFC0022A74BCDE9060101F0EBFCC9
:10121000CDE90C01BAF90E0001F054FD32463B460F
:10122000CDE9020101F06DFC00224FF08043CDE9D1
:10123000040101F066FCCDE90601DDE90C2301F0B3
:10124000B9FBCDE90C01BAF90C0001F03BFD00221D
:101250008D4BCDE9020101F054FC0022924BCDE907
:101260000601DDE90C0101F0BEFCCDE90401DDE978
:10127000062301F09FFBCDE90C01BAF90A0001F049
:1012800021FD32463B46CDE9020101F03AFC3246EF
:101290003B46CDE9040101F034FC00227D4BCDE951
:1012A000060101F0A0FCCDE90A01BAF9080001F03D
:1012B00009FD32463B46CDE9020101F022FCCDE9B1
:1012C0000401DDE90A2301F075FB0022714BCDE931
:1012D000060101F088FC06460F46BAF8060001F048
:1012E00002FD00226F4BCDE906013046394601F080
:1012F0007AFC0022664BCDE9020101F05BFBCDE9EF
:101300000401DDE9062301F0FCFB06460F4600223E
:1013100013463046394601F03DFD79D2DBF8000036
:1013200001F0E1FC0022614BCDE9060101F0E6FB92
:1013300004460D4600225E4BDDE90C0101F053FC32
:1013400022462B46CDE9020101F0D8FB0022594B81
:10135000CDE9040101F0D5FB32463B46CDE906015B
:1013600001F041FC04460D46BAF9160001F0AAFC52
:1013700022462B46CDE9020101F0C3FB22462B4653
:10138000CDE9040101F0BDFB00224B4BCDE9060184
:1013900001F029FC06460F46BAF9140001F092FC50
:1013A00022462B46CDE9040101F0ABFB00223D4B68
:1013B000CDE9060101F017FCCDE90C01BAF91200E4
:1013C00001F080FCCDE9020130463946DDE90C230D
:1013D00001F0F0FACDE90001DDE9022301F0EAFABB
:1013E0000022364BCDE9040101F0FDFB22462B46DD
:1013F000CDE9060101F0DEFA04460D4642464B46B1
:101400002046294601F0AEFC03D244464D460CE08E
:1014100009E020462946DDE9082301F0BBFC04D29F
:10142000DDE9084501E044464D46204629460FB017
:10143000BDE8F08F2DE9F04F8BB083468A4600213E
:101440001F48CDE908101F48CDE90610BAF8000082
:1014500001F049FC00221C4BCDE9000101F0C3FB67
:10146000CDE90401DBF8040001F03DFC0022174B3C
:10147000CDE9000101F0B7FBCDE90201DDE904236C
:1014800001F039FB804623E00000F040000090416D
:101490000000F03F00002041004CDD4000DBFA403E
:1014A0000040EF400000E0400000104000003041EC
:1014B0000000B040006AB8400000E0410000304049
:1014C000000044C000405540000090400000D04063
:1014D0008946BAF9020001F0F5FB42464B46CDE9D8
:1014E000040101F00EFB80468946BAF8000001F0C5
:1014F000FAFB0022864BCDE9000101F074FBCDE937
:101500000401DBF8040001F0EEFB00224FF08243FF
:10151000CDE9000101F067FBCDE90201DDE904231B
:1015200001F0E9FA06460F46BAF9040001F0CAFBD9
:1015300032463B46CDE904013046394601F0E1FA36
:10154000CDE90201DDE9042301F0DBFA06460F468E
:1015500032463B464046494601F02CFACDE90401AB
:1015600001F0CEFBCAF8240032463B4640464946CD
:1015700001F020FA0022674BCDE9040101F033FBB2
:1015800004460D4620462946DDE9082301F0EAFB22
:1015900002D2DDE9084508E020462946DDE90623B8
:1015A00001F0F8FB01D2DDE90645204629460BB0E3
:1015B000BDE8F08F2DE9F04105460E4614461F4662
:1015C0004FF0000826B31CB317B30021A160E160FF
:1015D000216061602161616105F0070028B1394631
:1015E0003046FFF727FFC4E9020105F0010028B1EA
:1015F00039463046FFF7D4FDC4E9000105F0040088
:1016000040B139463046FFF7E5FCC4E9040101E08A
:101610004FF0FF384046BDE8F08130B505782B0328
:1016200045782A0185782C0943EA020525430D6097
:10163000C5782B0305792A0145792C0943EA02056F
:1016400025434D6085792B02C27943EA02058D60FE
:1016500030BDF0B585B007460D4614460020039016
:1016600004900090019002902046FFF7B8F90646DA
:10167000AEB9A5B12346082203A9F720FFF7BCF9AC
:10168000064676B9694603A8FFF7C7FF04F11803B9
:101690002A4669463846FFF78DFF064601E04FF0BF
:1016A000FF36304605B0F0BD7CB501461AA660CEC7
:1016B000CDE900564D78052D03DC4D781DF8052049
:1016C00000E010220D78052D03DC0D781DF80530A3
:1016D00000E010238D78052D03DC8D781DF8054082
:1016E00000E0102440F6FC05554305F2E24640F6C2
:1016F000FC055D4305F23F252E4440F6FC0565439D
:1017000005F23F2535444FF47A76B5FBF6F07CBD03
:101710000000C0400000B4400001020408100000B6
:1017200008B50121082000F045FD4FF44060ADF8F8
:10173000000014208DF8030003208DF80200694694
:10174000684800F07BFA08BD10B5012066490860C2
:101750006649C1F8A801042000F0E3F800206249BE
:101760000860042000F0DDF800206049C1F8A801FD
:1017700010BD10B500205C49091F08605B49C1F825
:10178000AC01042000F0CDF801205749091F086082
:101790005649C1F8AC01042000F0C3F810BD10B5E3
:1017A00000205149091F08605049C1F8AC010120CF
:1017B00000F0B7F801204C49091F086000F0B1F8AB
:1017C00000204A49C1F8A801012000F0AAF810BD84
:1017D00010B500204449091F086001204349C1F8A1
:1017E000AC01022000F09DF801203F49091F08606C
:1017F000022000F096F800203C49C1F8A80110BD75
:1018000010B5002401203849086000F08AF8012052
:101810003649C1F8A80100F084F807E0601CC4B2A2
:10182000FA2C03DDFFF7A5FF012010BD2E488038FC
:1018300000680028F2D12C49091F086000BFF4E7B6
:1018400070B50446002500202749091F086000BF25
:1018500017E0E009244908606006040E022000F049
:1018600060F801202149C1F8A801022000F059F8D0
:1018700000201D49091F0860022000F052F8681C72
:10188000C5B2082DE5DB70BD70B5054608260024FD
:1018900001201549086014E06006040E002012497A
:1018A000091F0860012000F03CF801200F49C1F831
:1018B000A80100F036F80C488038006808B144F000
:1018C0000104301EA6F10101CEB2E5D10649091F7F
:1018D000086015B1FFF763FF01E0FFF779FF2046CD
:1018E00070BD0000000C0140AC812142008021420B
:1018F00010B56FF0040000F022F92E4800682E4960
:10190000B0FBF1F02D4908700846007800EB40016B
:10191000C1EBC0104FF6FF7101EAC00028490880F2
:1019200010BD0146254A12784A434FF0E0235A6120
:1019300000229A611A46126942F001021A6100BF40
:101940004FF0E022106900F001021AB100F4803279
:10195000002AF5D04FF0E022126922F001024FF088
:10196000E0231A6100229A6170470146144A1288E6
:101970004A434FF0E0235A6100229A611A461269E5
:1019800042F001021A6100BF4FF0E022106900F03E
:1019900001021AB100F48032002AF5D04FF0E022A3
:1019A000126922F001024FF0E0231A6100229A61CD
:1019B000704700000000002000127A001400002090
:1019C00016000020014600BF704700BF2B4A128856
:1019D00002F04002002AF9D0C2B2284B1B1D1A8027
:1019E000704770B586B004460E461546012144F294
:1019F000050000F0DFFB4FF40070ADF81400032089
:101A00008DF8160018208DF8170005A91C4800F065
:101A100015F94FF48060ADF8140004208DF817001C
:101A200005A9174800F00AF925208DF800008DF867
:101A300001608DF8025001208DF80300684600F027
:101A400034F801940020ADF80800ADF80A00ADF8B4
:101A50000C00ADF810000C20ADF80E0001A90748ED
:101A600000F04FFC012240F22551044800F0E1FC57
:101A70000121024800F0D1FC06B070BD00380140E1
:101A80000008014005480047FEE7FEE7FEE7FEE7E5
:101A9000FEE7FEE7FEE7FEE7FEE7FEE7ED000008F3
:101AA00031490143314A1160704770B5002100236C
:101AB0000F22C47804B32D4C246804F4E064C4F508
:101AC000E064210AC1F10403CA40447804FA03F136
:101AD0008478144021430901254C0678A1550478E7
:101AE00004F01F050124AC4005786D11AD0005F12F
:101AF000E025C5F8004109E0047804F01F05012441
:101B0000AC401C4D0678761145F8264070BD1A4A47
:101B10000A400243154B1B1F1A60704739B1134A24
:101B2000121D12680243114B1B1D1A6006E00F4A7A
:101B3000121D126882430D4B1B1D1A60704704284A
:101B400008D14FF0E021096941F004014FF0E02293
:101B5000116107E04FF0E021096921F004014FF025
:101B6000E0221161704700000000FA050CED00E072
:101B700000E400E080E100E080FFFF1F10B50446B4
:101B8000CC48844208D10121042000F02DFB002123
:101B9000042000F029FB46E0C748844208D1012117
:101BA000082000F021FB0021082000F01DFB3AE096
:101BB000C248844208D10121102000F015FB002109
:101BC000102000F011FB2EE0BD48844208D1012115
:101BD000202000F009FB0021202000F005FB22E07E
:101BE000B848844208D10121402000F0FDFA0021CC
:101BF000402000F0F9FA16E0B348844208D10121F0
:101C0000802000F0F1FA0021802000F0EDFA0AE0D7
:101C1000AE48844207D10121801500F0E5FA002189
:101C2000A01500F0E1FA10BD10B50121084600F042
:101C3000DBFA0021012000F0D7FA10BD2DE9F041B8
:101C4000024600250026002000230024002791F8EA
:101C500003C00CF00F0591F803C00CF0100CBCF1A0
:101C6000000F03D091F802C04CEA050591F800C0BE
:101C7000BCF1000F31D0146800202BE04FF0010CB4
:101C80000CFA00F3B1F800C00CEA03069E4220D122
:101C900083004FF00F0C0CFA03F7BC4305FA03FC6A
:101CA0004CEA040491F803C0BCF1280F06D14FF0B0
:101CB000010C0CFA00FCC2F814C00AE091F803C051
:101CC000BCF1480F05D14FF0010C0CFA00FCC2F832
:101CD00010C0401C0828D1D31460B1F800C0BCF17A
:101CE000FF0F34DD546800202EE000F1080C4FF0A7
:101CF000010808FA0CF3B1F800C00CEA03069E4292
:101D000021D183004FF00F0C0CFA03F7BC4305FA06
:101D100003FC4CEA040491F803C0BCF1280F05D180
:101D200000F1080C08FA0CF8C2F8148091F803C00E
:101D3000BCF1480F07D100F1080C4FF0010808FA78
:101D40000CF8C2F81080401C0828CED35460BDE8BF
:101D5000F0814FF6FF710180022181700421C17072
:101D600070470246002093680B400BB1012000E051
:101D7000002070470146886880B270470246002004
:101D8000D3680B400BB1012000E0002070470146F2
:101D9000C86880B2704701617047416170470AB1FD
:101DA000016100E041617047C16070474FF48032CB
:101DB0000A43826181618261826982697047024659
:101DC0000020434B18684FF68073184040EA021019
:101DD00008433F4B186070473E49C8617047F0B5F3
:101DE0000A46002300240021002500F00046B6F139
:101DF000004F02D1364EF16901E0354E7168C0F3F3
:101E0000034583B200F44016B6F5401F08D121F017
:101E100070612F4E766826F070662D4F7E6012E05E
:101E200000F48016B6F5801F06D1032606FA05F4E5
:101E3000A14341F0706106E0460D360103FA06F653
:101E4000B14341F0706122B1460D360103FA06F646
:101E5000314300F00046B6F1004F02D11C4EF16153
:101E600001E01B4E7160F0BD30B500228B071C0FE6
:101E70000F2303FA04F2164B08338C1053F8243066
:101E80009343134C08348D1044F8253023468C10AE
:101E900053F824308C07240F00FA04F423430C4C2D
:101EA00008348D1044F8253030BD0A49DC31086013
:101EB0007047000000080140000C01400010014084
:101EC0000014014000180140001C014000200140A6
:101ED0000000014000002042DF48006840F001009F
:101EE000DD49086008464068DC490840DA49486036
:101EF00008460068DA490840D74908600846006883
:101F000020F4802008600846406820F4FE00486005
:101F10004FF41F0088607047CF49096821F4803171
:101F2000CD4A11601146096821F480211160B0F595
:101F3000803F03D0B0F5802F0ED106E0C649096876
:101F400041F48031C44A116007E0C349096841F493
:101F5000A021C14A116000E000BF00BF704710B56A
:101F600001460022002300204A11012A02D1BA4C66
:101F7000236806E0022A02D1B74C236A01E0B64C7E
:101F8000636A01F01F02012494401C400CB101203F
:101F900000E0002010BD38B500200090002400258E
:101FA00000BF3120FFF7DBFF05460098401C009082
:101FB0000098B0F5A06F01D0002DF2D03120FFF7CE
:101FC000CEFF08B1012400E00024204638BD0146C0
:101FD0000020A14A106820F0F80040EAC10010601B
:101FE0007047A04908607047024600209A4B586825
:101FF00020F47C1042EA01031843974B5860704765
:1020000098490866704701460020934A506820F0BE
:1020100003000843506070478F48406800F00C0090
:102020007047014600208C4A506820F0F0000843B9
:102030005060704701460020874A506820F4E060F5
:1020400008435060704701460020834A506820F4DE
:10205000605040EAC1005060704729B17E4A527A10
:1020600002437D4B5A7204E07B4A527A82437A4B98
:102070005A7270477B49D83108607047014600208A
:10208000754A506820F44040084350607047002172
:10209000714A20321170704A82F82010012802D053
:1020A00004280AD104E001216B4A2032117005E0B6
:1020B0000521694A2032117000E000BF00BF70475F
:1020C0006949086070476449096A0143624A1162BC
:1020D0007047654944390860704730B500210022D7
:1020E000002400235C4D6D6805F00C0121B104292A
:1020F00005D0082923D105E05C4D056022E05B4D49
:1021000005601FE0544D6D6805F47012524D6D6806
:1021100005F48034022505EB92421CB9544D554319
:1021200005600BE04C4D6D6805F400351DB1504D58
:102130005543056002E04D4D5543056002E04B4DAF
:10214000056000BF00BF444D6D6805F0F00109094E
:10215000484D6B5C0568DD4045603F4D6D6805F49A
:10216000E061090A434D6B5C4568DD4085603A4D8E
:102170006D6805F46051C90A3E4D6B5C4568DD40F1
:10218000C560354D6D6805F44041890B3A4D6B5C77
:10219000C568B5FBF3F5056130BD29B12E4A52691A
:1021A00002432D4B5A6104E02B4A526982432A4B69
:1021B0005A61704729B1284A92690243264B9A61B5
:1021C00004E0254A92698243234B9A61704729B102
:1021D000214AD2690243204BDA6104E01E4AD269E7
:1021E00082431D4BDA61704729B11B4AD268024312
:1021F000194BDA6004E0184AD2688243164BDA6061
:10220000704729B1144A12690243134B1A6104E062
:10221000114A12698243104B1A61704712494039C2
:10222000086070470F49C86470470B49C871704710
:102230000948406A40F0807007494862704701468B
:102240000020054A92680A400AB1012000E00020FF
:102250007047014988727047001002400000FFF883
:10226000FFFFF6FE000042428004424200127A0064
:1022700000093D001C0000202C00002010B5044681
:10228000FB48844209D101218803FFF7ADFF0021FB
:102290004FF48040FFF7A8FF32E0F648844209D1AE
:1022A00001214804FFF7ADFF00214FF40030FFF794
:1022B000A8FF25E0F048844209D101218804FFF7F6
:1022C000A0FF00214FF48020FFF79BFF18E0EB48B0
:1022D000844209D10121C804FFF793FF00214FF484
:1022E0000020FFF78EFF0BE0E548844208D1012172
:1022F0000805FFF786FF00214FF48010FFF781FFEC
:1023000010BD2DE9F04786B005460E460024A246D2
:1023100000BFA1460027B08900B100BF2F462C8A1C
:102320004CF6FF700440F08804432C82AC894EF6D2
:10233000F3100440B088318908437189084304438D
:10234000AC81AC8A4FF6FF400440B0890443AC82B4
:1023500001A8FFF7C2FEC648874202D1DDF810A0EF
:1023600001E0DDF80CA0A88900F4004040B10AEBC0
:10237000CA0000EB0A1031684900B0FBF1F807E031
:102380000AEBCA0000EB0A1031688900B0FBF1F8D3
:102390006420B8FBF0F004012009642101FB1089DE
:1023A000A88900F4004040B1322000EBC900B0FB26
:1023B000F1F000F00700044308E0322000EB0910C0
:1023C0006421B0FBF1F000F00F0004432C8106B053
:1023D000BDE8F0874FF41651016000218180C18073
:1023E00001810C21418100218181704710B5024695
:1023F0000020108A4FF2FF0318400B884C882343BB
:102400008C882343CC8823431843108210BD0021BD
:10241000018041808180C180704721B1828942F46E
:102420000052828104E082894DF6FF731A40828156
:102430007047F0B50346002400260025002040F632
:102440006A17B94200D100BF1846C1F3421401F027
:102450001F06012707FA06F5012C01D10C3004E014
:10246000022C01D1103000E014301AB107682F435C
:10247000076002E00768AF430760F0BD1AB1838AC6
:102480000B43838202E0838A8B4383827047028AF4
:102490004FF6F0731A400282028A0A4302827047A2
:1024A00082894FF2FF731A40828182890A438281B6
:1024B000704721B1828942F00202828104E0828960
:1024C0004FF6FD731A4082817047028A4FF6DF7320
:1024D0001A400282028A0A430282704721B1028AAC
:1024E00042F48042028204E0028A4BF6FF731A40F3
:1024F00002827047C1F308028280704701468888D3
:10250000C0F308007047818941F001018181704763
:10251000028BD2B20283028B42EA0122028370470D
:10252000028B02F47F420283028B0A4302837047CC
:1025300021B1828A42F02002828204E0828A4FF630
:10254000DF731A408282704721B1828A42F0100202
:10255000828204E0828A4FF6EF731A4082827047CB
:1025600021B1828A42F00802828204E0828A4FF618
:10257000F7731A408282704721B1828942F4004287
:10258000828103E08289C2F30E028281704721B109
:10259000828A42F40062828204E0828A4FF2FF73F0
:1025A0001A4082827047828A4FF6FB731A408282F9
:1025B000828A0A438282704721B1828A42F00202F3
:1025C000828204E0828A4FF6FD731A40828270474D
:1025D00002460020B1F5007F00D100BF13880B40F8
:1025E0000BB1012000E00020704701F40072B2F549
:1025F000007F00D100BFCA430280704770B5024619
:10260000002400230025002040F66A16B14200D1C4
:1026100000BFC1F3421501F01F03012606FA03F3C0
:10262000012D02D19689334006E0022D02D1168A8F
:10263000334001E0968A33400C12012606FA04F476
:102640001688344013B10CB1012000E0002070BDA9
:1026500010B50022002340F66A14A14200D100BF49
:102660000A1201249440A3B2DC43048010BD000090
:10267000003801400044004000480040004C004049
:102680000050004010B50446BE48844208D10121E4
:102690008014FFF7A9FD0021A014FFF7A5FD16E0A7
:1026A000B948844208D101210014FFF7AAFD002196
:1026B0002014FFF7A6FD0AE0B448844207D10121A7
:1026C000C013FFF79EFD0021E013FFF79AFD10BD38
:1026D00010B50022028802F441520B884C88234333
:1026E0008C882343CC8823430C8923434C89234380
:1026F0008C892343CC8923431A430280838B4FF276
:10270000FF74234083830B8A038210BD2DE9F04FB1
:1027100085B005460C464FF0000902274FF000082F
:102720004FF0010B0026B246A88B4FF24001084043
:10273000A88302202884B5F81C90A068022801D143
:1027400000BF38E0A08810B94FF0010B01E04FF056
:10275000020B8D48854200D100E000BF6846FFF7BC
:10276000BCFCDDF800A0E088B0F5007F0AD14FEA9C
:102770001A2000EB80004000A168B0FBF1F0401D82
:1027800086B20BE04FEA4B10BAFBF0F000EB800092
:102790004000A168B0FBF1F0401D86B20A20B6FBF4
:1027A000F0F606F00108A6EB0800C0F34F074FF65D
:1027B000FF7000EA0828022F01DBFF2F02DD02274D
:1027C0004FF00008E08840EA080038432884A088D9
:1027D000A1890843618808432188084340F40060C8
:1027E00040EA0909A5F81C9005B0BDE8F08F00216A
:1027F000018041808180C180018141818181C181CD
:102800000721018270470021018041808180C180C1
:102810000221816000218181704721B1028842F04C
:102820004002028004E002884FF6BF731A40028023
:10283000704721B1828B42F48062828304E0828BF4
:102840004FF6FF331A408283704730B500240023CF
:102850000C110125A540ABB21AB185881D438580B6
:1028600002E085889D43858030BD1AB183880B4383
:10287000838002E083888B43838070478181704727
:102880000146888970474FF6FF62914204D0028862
:1028900042F48072028004E002884FF6FF631A401F
:1028A0000280704721B1828842F00402828004E0F5
:1028B00082884FF6FB731A408280704702884FF27D
:1028C000FF731A40028002880A4302807047018821
:1028D00041F480510180704721B1028842F40052D6
:1028E000028004E002884DF6FF731A4002807047B0
:1028F00002460020012901D0108B00E0908A704729
:102900000146088A7047B1F5804F04D1028842F42D
:102910008042028004E002884BF6FF731A40028076
:1029200070470246002013890B400BB1012000E0E4
:1029300000207047CA4302817047F0B5024600206C
:1029400000240023002501F00F070126BE40B4B289
:102950000B1101269E40B3B2968806EA030516893C
:10296000264016B10DB1012000E00020F0BD10B5E9
:10297000002201F00F040123A3409AB2D343038144
:1029800010BD00000030014000380040003C004015
:10299000D2B201E000F8012B491EFBD270470022A1
:1029A000F6E710B513460A4604461946FFF7F0FF4E
:1029B000204610BD2DE9FE4F804681EA0300C00F7E
:1029C0000C46009021F0004123F00045B8EB0200D6
:1029D000A94105D24046214690461C460B46024678
:1029E00023F00040104347D0270DC7F30A00C3F37C
:1029F0000A510290401A019040286BDAC3F3130089
:102A000040F4801B0098924620B10023D2EB030AC9
:102A100063EB0B0B01985946C0F14002504600F0A1
:102A200034FA06460D4650465946019A00F04CFAD3
:102A300010EB08006141002487EA115284EAE77331
:102A40001A4340D0009A62B3019A012A4FEA075212
:102A500015DC001B61EB02014FF0004202EA075255
:102A6000CDE90042001C41F5801132462B4600F0B2
:102A700083FA03B0BDE8F08F40462146F9E7001B1A
:102A800061EB0201001C41F5801300185B41201826
:102A9000A2F5001747EB030140EAD570B6196D4166
:102AA00011E06D084FEA360645EAC0754FEA075255
:102AB000001B61EB0201001C41F5801149084FEA3F
:102AC00030000019514132462B4603B0BDE8F04FAB
:102AD00000F043BA0098012240000023D0EB02022C
:102AE00063EBE073009821464FEAE074B8EB000016
:102AF00061EB0401E9E783F000435BE781F000410B
:102B000058E72DE9FE4F81EA030404F0004421F068
:102B1000004100944FF0000B23F0004350EA010401
:102B20005ED052EA03045BD0C3F30A54C1F30A55E2
:102B30002C44A4F2F3340194A0FB0254C1F313011A
:102B400041F48011C3F3130343F4801301FB0244E7
:102B500000FB034E840A970A44EA815447EA8357EC
:102B6000A4FB076802958D0A05FB07854FEA932CA5
:102B700004FB0C542705029D4FEA065847EA163716
:102B8000B5EB08056EEB070C870E920E47EA81172E
:102B900042EA8312A7FB0201B6EB0B0164EB0004CF
:102BA0002B0D43EA0C335E1844EB1C50DA465146B9
:102BB000E7FB0201C5F313044FEA0B3343EA145356
:102BC0004FEA0432019C43EA0603A4F10C04029488
:102BD000009CCDE900B400F0CFF903B0BDE8F08F60
:102BE00000200146F9E72DE9F04D81EA030404F0E5
:102BF000004B21F0004514464FF0000A23F000413D
:102C000050EA050220D054EA01021DD0C5F30A574C
:102C10000246C5F31303C1F31300C1F30A5640F48F
:102C2000801543F48013A7EB0608101BD64608F264
:102C3000FD3873EB050002D308F1010801E092189A
:102C40005B41B8F1000F03DA00200146BDE8F08DCA
:102C500000204FF48011064684460EE0171B73EBEC
:102C6000050705D3121B63EB050306434CEA010C71
:102C700049084FEA300092185B4150EA0107EDD154
:102C800052EA030012D082EA040083EA05010843F5
:102C900005D0101BAB4106D20122002306E0002222
:102CA0004FF0004302E06FF0010253101AEB0600F0
:102CB0004CEB085110EB0A0041EB0B01BDE8F04D65
:102CC00000F04BB90EB5C10F80EAE0700844CA07A6
:102CD000002140F233438DE80E000A460B4600F017
:102CE0004BF903B000BD0EB540F233410291002113
:102CF000CDE900110A460B4600F03EF903B000BDD5
:102D000070B5C1F30A5201F000450024C1F313016C
:102D100040F2FF3341F480119A4201DA002070BD85
:102D200040F233439A42A2F2334203DC524200F0B3
:102D3000BBF800E090402C43F1D0404270BD00F061
:102D4000004230F000400AD0C10D01F56071C0F3BF
:102D5000160042EA0151C2084007114370470020A3
:102D60000146704730B5041E71F1000404DB4FF0DA
:102D70000044404264EB0101141E73F1000405DBC2
:102D80001C464FF00043524263EB04038B4208BFE2
:102D9000824230BD30B5041E71F1000404DB4FF0F7
:102DA0000044404264EB0101141E73F1000405DB92
:102DB0001C464FF00043524263EB0403994208BFA4
:102DC000904230BD01F0004330B421F0004150EAA0
:102DD000010206D00A0DA2F56072C1F31301002AA8
:102DE00002DC30BC00207047440F44EAC104C1003B
:102DF000E01830BC00EBC25000F078B830B50B469C
:102E0000014600202022012409E021FA02F59D421A
:102E100005D303FA02F5491B04FA02F52844151EEE
:102E2000A2F10102F1DC30BD2DE9F05F0546002082
:102E300092469B4688460646814640241BE028462B
:102E400041464746224600F02FF853465A46C01ADC
:102E5000914110D311461846224600F016F82D1A5B
:102E600067EB01084F4622460120002100F00DF8D3
:102E700017EB00094E41201EA4F10104DFDC484697
:102E800031462A464346BDE8F09F202A04DB203A1B
:102E900000FA02F1002070479140C2F1200320FAAD
:102EA00003F3194390407047202A04DB203A21FAAB
:102EB00002F00021704721FA02F3D040C2F1200253
:102EC0009140084319467047202A06DBCB17203A69
:102ED00041FA02F043EAE07306E041FA02F3D0401F
:102EE000C2F1200291400843194670470029A8BF4B
:102EF0007047401C490008BF20F00100704710B423
:102F0000B0FA80FC00FA0CF050EA010404BF10BCD7
:102F1000704749B1CCF1200421FA04F411FA0CF104
:102F200018BF012121430843A3EB0C01CB1D4FEA3D
:102F300000614FEA102042BF002010BC704700EB38
:102F4000C35010440029A4BF10BC7047401C490066
:102F500008BF20F0010010BC704710B5141E73F1BB
:102F6000000408DA401C41F1000192185B411A4349
:102F700001D120F0010010BD2DE9F04D92469B4695
:102F800011B1B1FA81F202E0B0FA80F2203290463B
:102F9000FFF77BFF04460F4640EA0A0041EA0B01B7
:102FA00053465A46084313D0114653EA010019D03C
:102FB000C8F140025046FFF777FF05460E465046DF
:102FC00059464246FFF761FF084305D0012004E05F
:102FD00020463946BDE8F08D0020054346EAE076FC
:102FE0002C4337430A986305E40AA0EB080000224B
:102FF000FD0A44EA47540A3002D500200146E9E7B9
:10300000010510196941DDE9084500196941BDE86C
:10301000F04DA2E7C1F30A52C1F3130140F2FF33AE
:1030200041F480119A4202DA00200146704740F2D2
:1030300033439A42A2F2334202DC5242FFF734BFDA
:10304000FFF723BF064C074D06E0E06840F00103A0
:1030500094E8070098471034AC42F6D3FDF74AF8DD
:1030600078390008983900080FB4024610B504A951
:10307000034B039800F0E8F810BC5DF814FB000067
:10308000CB1900080FB4054B10B503A9044A0298E8
:1030900000F0DAF810BC5DF814FB0000CB19000852
:1030A0001800002002E008C8121F08C1002AFAD147
:1030B00070477047002001E001C1121F002AFBD1B8
:1030C000704700002DE9FF5F82B00021DDE9043088
:1030D000020DDDF840B0034318D044F61050A2F2C0
:1030E000FF3242431514119801281FD0A5EB0B00A5
:1030F000401C5FEA000A4FF000064E4FDFF838919F
:10310000B046504615D5CAF1000413E011980124C9
:103110004AA3012801D16FEA0B010298119AC0E974
:103120000031C0E9024206B0BDE8F09FCBF10000DB
:10313000DFE704460021404A491842EB0450CDE93C
:10314000001012E0E00707D032463B4640464946B1
:10315000FFF7D7FC8046894632463B461046194663
:10316000FFF7CFFC06460F466410002CEAD1DDE9DC
:103170000401DDE90023BAF1000F06DAFFF7C1FC14
:1031800042464B46FFF7BDFC05E0FFF72CFD4246EB
:103190004B46FFF728FD04460E460022284BFFF75A
:1031A000F9FD03D84FF0FF30014607E00022254B20
:1031B00020463146FFF7FEFBFFF72CFF102409E005
:1031C000002C0ADB0A220023FFF72EFE039B30327D
:1031D0001A55641E50EA0102F2D1641C039AC4F12C
:1031E00011031444119A012A03D0012208430DD17E
:1031F0000AE0084304D000204FF0110B119072E751
:10320000A3EB0B056D1E0DE05B4504DD4FF00002E6
:1032100005F1010504E003DA4FF00002A5F1010514
:10322000002AECD002981199C0E90231C0E90045AA
:1032300079E70000000014400000F03F300000007B
:103240000000F0430000E03F2DE9FF4F95B09B46A2
:103250008946064600250FE2252877D10024274617
:10326000F84A0121059400E0044316F8013F203B91
:1032700001FA03F01042F7D130782A2811D06FF00C
:103280002F033078A0F13002092A16D8059A44F0AD
:10329000020402EB820203EB42021044761C05900A
:1032A000EFE759F8042B0592002A03DA504244F460
:1032B0000054059044F00204761C30782E2816D174
:1032C00016F8010F44F004042A280DD06FF02F02E5
:1032D0003078A0F13003092B09D807EB870302EB04
:1032E0004303C718761CF3E759F8047B761C307843
:1032F0006C280FD006DC4C2817D068280DD06A281F
:1033000014D104E0742810D07A280FD10DE044F4D1
:1033100000140AE044F4801401E044F4401472788C
:10332000824202D104F58014761C761C307866281F
:103330000BD013DC582877D009DC002875D045283D
:10334000F6D04628F4D047281AD19DE118E063282A
:1033500035D0642879D0652812D195E1702873D0D2
:1033600008DC6728F1D069286FD06E280DD06F284F
:1033700006D1B5E073282CD0752875D0782874D084
:103380005A46179990476D1C75E1C4F30250022804
:1033900009D003280DD0D9F8001004280DD00D60F5
:1033A00009F1040967E1D9F80010EA17C1E90052F0
:1033B000F6E7D9F800100D80F2E70D70F0E719F884
:1033C000041B8DF8001000208DF80100EA46012052
:1033D00003E059F804AB4FF0FF3061074FF00001F4
:1033E00002D40DE008F101018846B9420FDA8045A8
:1033F000F8DB1AF808100029F4D108E008F10101FF
:1034000088468142FADB1AF808100029F6D105989F
:103410005B46A0EB080721463846179A00F094FA5D
:10342000284400EB080507E04DE029E10DE01AF81B
:10343000010B5A4617999047B8F10108F7D25B463D
:1034400021463846179A13E142E00A220092C4F35B
:1034500002524FF0000A022A08D059F804CB032A7E
:103460004FEAEC710AD00DE029E02AE009F10701EA
:1034700021F00702F2E802C1914609E00FFA8CFC44
:103480004FEAEC71042A03D14FFA8CFC4FEAEC713D
:10349000002907DA0A460021DCF1000C61EB020189
:1034A0002D2202E0220504D52B228DF804200122D2
:1034B00003E0E20701D02022F7E7904659E00A2115
:1034C00002E010220DE010214FF0000A00910BE005
:1034D00010224FF0000A44F004040827009203E091
:1034E00008224FF0000A0092C4F30252022A05D0CB
:1034F00059F804CB0021032A08D009E009F107019B
:1035000021F00702F2E802C1914605E01FFA8CFCA7
:10351000042A01D10CF0FF0C4FF00008220728D537
:10352000702806D0009B83F0100353EA0A0305D0ED
:103530000EE040228DF80420012208E05CEA01023E
:1035400006D030228DF804208DF805000222904626
:10355000009B83F0080353EA0A030AD15CEA0102E4
:1035600001D1620705D530228DF804204FF0010803
:103570007F1E582804D034A003900EA802900DE0BE
:1035800036A0F9E753466046009AFFF74DFC8446A3
:103590000398825C0298401E029002705CEA01006F
:1035A000F0D1029806A9081A00F1200A600702D596
:1035B00024F4803400E00127574502DDA7EB0A0020
:1035C00000E0002000EB0A01009005984144401AF9
:1035D0000590E00306D45B462146179A059800F053
:1035E000B3F90544002706E001A85A46C05D1799C3
:1035F00090476D1C7F1C4745F6DBE0030CD55B460E
:103600002146179A059800F09FF9054404E0302000
:103610005A46179990476D1C0099481E0090002942
:10362000F5DC08E0029802995A460078491C02919C
:10363000179990476D1CBAF10001AAF1010AF1DC5B
:1036400065E1000009280100303132333435363766
:1036500038396162636465660000000030313233DE
:10366000343536373839414243444546000000007E
:1036700000F058F90544761C307800287FF4ECAD52
:1036800019B02846BDE8F08F620700D4062709F17B
:10369000070222F0070CFCE80223E14603F0004891
:1036A0005FEA080C02D00FF2702C0DE05FEA045CB8
:1036B00002D50FF2682C07E05FEAC47C02D00FF25B
:1036C000602C01E0AFF2700C4FF0FF3823F00043A4
:1036D000CDF850C065280CD006DC452809D0462816
:1036E0001DD047283DD13DE0662818D067287ED1FF
:1036F00038E00021112F01DB112000E0781CCDE91A
:10370000000106A90EA8FFF7DDFCDDE90F010E9A06
:1037100003910021009207F1010A04914DE04FF05E
:1037200000400097CDE9011006A90EA8FFF7CAFCDA
:10373000DDE90F0203920E9B11990022DDF80CA027
:103740000093049211B9791C00EB010AB7EB0A004F
:1037500004D4C0F1FF3007F1010A0490AAEB07007E
:10376000019044E0012F00DA01270021112F01DD33
:10377000112000E03846CDE9000106A90EA8FFF7A8
:10378000A1FCDDE90F010E9A039100210491009242
:10379000BA4621070CD40399514500DA8A46BAF19A
:1037A000010F05DD009AAAF10101515C302908D012
:1037B000B84202DA10F1040F06DA0121CDE9011056
:1037C00015E0AAF10101E9E7002805DC04990144AC
:1037D0000491AAEB000102E0411C514500DD8A463C
:1037E0000499401A401C01904FF0004002902007BD
:1037F00004D40198504501DBCDF8048000208DF8F9
:103800004F0002980DF14F07B0F1004F25D02B204B
:103810000E9002984FF0020800280CDA4042029005
:103820002D200E9007E00A210298FFF7E7FA3031C9
:10383000029007F8011DB8F10001A8F10108F2DCBF
:1038400002980028EFD1791E0E980870307800F0A9
:10385000200040F0450007F8020D12A8C01B00F13F
:1038600007081498007800B1012000EB0A010198C4
:1038700001EBE07105984144401A401E0590E003B9
:1038800006D45B462146179A059800F05DF805447A
:103890001498007818B15A46179990476D1CE003A8
:1038A00024D55B462146179A059800F04DF805444B
:1038B0001CE00498002807DBDDE90301884203DDF2
:1038C0000098405C179901E0179930205A469047BC
:1038D000049805F10105401C04900198401E0190D8
:1038E00004D12E205A46179990476D1CBAF1000159
:1038F000AAF1010ADDDC05E017F8010B5A46179919
:1039000090476D1CB8F10001A8F10108F4DC5B469A
:103910002146179A0598ABE62D0000002B00000009
:10392000200000002DE9F041044600251E46174600
:10393000880404D405E039462020B0476D1C641E7D
:10394000F9D52846BDE8F0812DE9F041044600256F
:103950001E469046C80301D5302700E02027880482
:1039600004D505E041463846B0476D1C641EF9D5C4
:103970002846BDE8F08100009839000800000020CA
:1039800034000000A4300008CC39000834000020C6
:1039900004020000B430000800A24A040000000045
:1039A00000000000010203040607080900000000EF
:1039B00000000000000000000102030401020304F3
:0C39C000060708090204060800000000C9
:04000005080000ED02
:00000001FF
